:100000001FC039C038C037C036C035C07CC233C00D
:1000100032C0CDC230C02FC02EC02DC0B9C22BC03F
:100020002AC029C028C021C523C522C51EC502C5B6
:1000300004C506C508C50AC50CC50EC510C512C540
:1000400011241FBECFE5D4E0DEBFCDBF11E0A0E696
:10005000B0E0EEE4F4E102C005900D92A036B107E5
:10006000D9F711E0A0E6B1E001C01D92A936B107B1
:10007000E1F790D7EAC9C4CFA8E0B0E0E1E4F0E04E
:100080000BC99B01AC0183E08983DA01C901882790
:10009000B7FD83959927AA27BB27B82E21153105CF
:1000A0004105510519F482E0898339C08823A9F0FC
:1000B000203080E0380780E0480780E8580729F4BE
:1000C00060E070E080E09FEC2EC0EE24FF2487010A
:1000D000E21AF30A040B150B02C079018A018EE1C2
:1000E000C82ED12CDC82CB82ED82FE820F83188752
:1000F000C801B7016CD001971816190684F4082EB0
:1001000004C0EE0CFF1C001F111F0A94D2F7ED82F1
:10011000FE820F831887C81AD90ADC82CB82BA8282
:10012000CE010196A3D02896E9E0D2C8ACE0B0E0B9
:10013000EBE9F0E0B8C869837A838B839C83CE01B6
:100140000196BE016B5F7F4F66D18D81823061F178
:10015000823050F1843021F48E81882351F12EC0F9
:100160002F81388537FD20C06E812F3131051CF07D
:100170006623F9F023C08EE190E0821B930B298562
:100180003A854B855C8504C05695479537952795EC
:100190008A95D2F76623B1F0509540953095219518
:1001A0003F4F4F4F5F4F0EC020E030E040E050E047
:1001B00009C02FEF3FEF4FEF5FE704C020E030E0D2
:1001C00040E050E8B901CA012C96E2E088C8EF92FD
:1001D000FF920F931F937B018C0180E0E81680E073
:1001E000F80681E0080780E0180788F48FEFE8162A
:1001F000F1040105110531F028F088E090E0A0E05D
:10020000B0E017C080E090E0A0E0B0E012C080E075
:10021000E81680E0F80680E0080781E0180728F07B
:1002200088E190E0A0E0B0E004C080E190E0A0E0D0
:10023000B0E020E230E040E050E0281B390B4A0BF0
:100240005B0B04C016950795F794E7948A95D2F74F
:10025000F701E05AFF4F8081281B310941095109FC
:10026000C9011F910F91FF90EF900895DF92EF92D7
:10027000FF920F931F93FC01E480F58006811781A4
:10028000D1808081823048F480E090E0A0E1B0E04D
:10029000E82AF92A0A2B1B2BA5C0843009F49FC039
:1002A000823021F4EE24FF24870105C0E114F1041B
:1002B0000105110519F4E0E0F0E096C06281738158
:1002C0009FEF623879070CF05BC022E83FEF261BF6
:1002D000370B2A3131052CF020E030E040E050E0CF
:1002E0002AC0B801A701022E04C0769567955795DC
:1002F00047950A94D2F781E090E0A0E0B0E004C016
:10030000880F991FAA1FBB1F2A95D2F70197A10931
:10031000B1098E219F21A023B1230097A105B1052A
:1003200021F081E090E0A0E0B0E09A01AB01282B41
:10033000392B4A2B5B2BDA01C9018F779070A070A3
:10034000B07080349105A105B10539F427FF09C0CB
:10035000205C3F4F4F4F5F4F04C0215C3F4F4F4FDA
:100360005F4FE0E0F0E02030A0E03A07A0E04A076D
:10037000A0E45A0710F0E1E0F0E079018A0127C01B
:100380006038710564F5FB01E158FF4FD801C701E2
:100390008F779070A070B07080349105A105B10581
:1003A00039F4E7FE0DC080E490E0A0E0B0E004C0C6
:1003B0008FE390E0A0E0B0E0E80EF91E0A1F1B1FDB
:1003C00017FF05C016950795F794E794319687E0D7
:1003D00016950795F794E7948A95D1F705C0EE2412
:1003E000FF248701EFEFF0E06E2F67956627679592
:1003F000902F9F77D794DD24D7948E2F8695492F01
:10040000462B582F5D29B701CA011F910F91FF900C
:10041000EF90DF900895FC01DB0140815181228142
:10042000622F6F7770E0221F2227221F9381892F6E
:10043000880F822B282F30E0991F9927991F11963A
:100440009C93119721153105A9F5411551056105B9
:10045000710511F482E037C082E89FEF13969C93F8
:100460008E9312979A01AB0167E0220F331F441F4E
:10047000551F6A95D1F783E08C930DC0220F331F6F
:10048000441F551F12968D919C91139701971396B7
:100490009C938E931297203080E0380780E04807C5
:1004A00080E4580758F314962D933D934D935C9335
:1004B000179708952F3F310579F4411551056105CE
:1004C000710519F484E08C93089564FF03C081E002
:1004D0008C9312C01C9210C02F57304013963C933F
:1004E0002E93129783E08C9387E0440F551F661F6D
:1004F000771F8A95D1F7706414964D935D936D9331
:100500007C93179708951F920F920FB60F921124A4
:100510002F933F935F936F937F938F939F93AF93AB
:10052000BF93809162019091630101966CE370E04A
:100530005AD6909363018093620181E080936501B4
:100540008091660190916701019690936701809375
:1005500066011DBC1CBC8091620190916301892BD6
:1005600049F480916001909161010196909361013D
:1005700080936001BF91AF919F918F917F916F9117
:100580005F913F912F910F900FBE0F901F90189584
:100590001F920F920FB60F9211248F9381E08093D8
:1005A00064018F910F900FBE0F901F9018951F92AE
:1005B0000F920FB60F9211248F93369A8AE082BF62
:1005C0008F910F900FBE0F901F901895EF92FF9292
:1005D0000F931F93CF93DF937C01DB01EA01F901B5
:1005E0000190F081E02D8D919C911197E817F9070A
:1005F0001CF41196FC93EE938881998180179107E2
:1006000049F48D919C91119746968D939C9381E02E
:10061000F7018083DF91CF911F910F91FF90EF90B1
:100620000895CF92DF92EF92FF920F931F93CF9393
:10063000DF93DC016B01FA01E901780104B115B126
:100640002D913C91119725313105B0F4808188239B
:1006500099F4C90164E170E0B2D5E82FF0E0EE0F43
:10066000FF1FEE0DFF1D1183008388819981800F8C
:10067000911F9983888321C081E080838D919C9113
:1006800064E170E09CD5E82FF0E0EE0FFF1FEE0D67
:10069000FF1D88819981800F911F20813181821BEC
:1006A000930B99838883118300838881998164E106
:1006B00070E099D5F60171836083DF91CF911F912E
:1006C0000F91FF90EF90DF90CF9008952F923F927F
:1006D0004F925F926F927F928F929F92AF92BF9252
:1006E000CF92DF92EF92FF920F931F93DF93CF93FE
:1006F00000D0CDB7DEB79A8389833B01DA012801A8
:100700001501A98CBA8CFB0180819181019691839E
:100710008083F90120813181029744F474E0369599
:1007200027957A95E1F72D933C93CFC04D915C913D
:10073000119764E0369527956A95E1F711963C93F9
:100740002E93F301808191810397CCF4241B350B08
:10075000AB8DBC8D4D915C9188EE93E0FC014E9F7A
:10076000C0014F9F900D5E9F900D1124280F391FDF
:10077000D7012D933C93D801ED91FC917CC0F501FC
:1007800080819181019691838083F70160817181DD
:100790008D919C91841B950BAB8DBC8D4D915C9183
:1007A00028EE33E0F9014E9F90014F9F300D5E9F80
:1007B000300D1124820F931FD7018D939C938C01D0
:1007C000061B170B17FF03C0109501951F4FF10172
:1007D00020813181009FC001019F900D109F900DDD
:1007E0001124D3016D917C9162507040821B930B58
:1007F000FAD4260F371F31832083E981FA812081C3
:100800003181F801E21BF30BD5016D917C91CF0191
:10081000EAD4620F731FA981BA816D937C93C801DA
:10082000861B970B8E9F90018F9F300D9E9F300DE2
:100830001124442737FD4095542FF4018081918184
:10084000A281B381820F931FA41FB51F8083918360
:10085000A283B3830333110544F0AF89B88D8D9122
:100860009C91119701968D939C93D201ED91FC91EF
:10087000D7012D913C912E1B3F0BD5016D917C91A1
:10088000C901B1D46E0F7F1FF20171836083D7015C
:100890008D919C91861B970BF9018E9F90018F9FE4
:1008A000300D9E9F300D1124442737FD4095542F65
:1008B000F60180819181A281B381820F931FA41FD1
:1008C000B51F80839183A283B3830F900F90CF9144
:1008D000DF911F910F91FF90EF90DF90CF90BF902D
:1008E000AF909F908F907F906F905F904F903F90D0
:1008F0002F9008958295807F982F906295BB20E479
:100900003FE1F9013197F1F762BBF9013197F1F756
:1009100085BBC9010197F1F7089589E09DE39BBD6F
:100920008ABD8EB588608EBD89B7806189BF8EB55E
:1009300085608EBD83E083BF8AE082BF89B7816016
:1009400089BF08950F931F9380E384BB8FEF81BB12
:1009500000E61AEEC8010197F1F780E06CE1CADF0A
:1009600080E29EE40197F1F780E060EFC3DF80E072
:1009700060E6C0DF80E060E8BDDF80E060E4BADF11
:10098000C8010197F1F71F910F91089517B83D988D
:100990003E9A3F9886B1876086B9379A339A369ADD
:1009A00008955F926F927F928F929F92AF92BF92C3
:1009B000CF92DF92EF92FF920F931F93DF93CF932B
:1009C000CDB7DEB7FC01162F072FCDB6DEB600D0AF
:1009D00000D000D0EDB6FEB60894E11CF11C808179
:1009E0009181B7014AE050E085D4212F302FC90111
:1009F0009C0140E050E08FE7582E6CE00CE9602E3F
:100A00001CE1712EBCEE8B2EACE69A2EFCEAAF2ECA
:100A1000ECE2BE2E0CEC1CE47CE8F701E40FF51FC1
:100A2000808190E0FC01BD97ED30F10508F5ED5EA9
:100A3000FF4F0994F90170831DC0F90110831AC09A
:100A4000F901008317C0F901B08214C0F901A08236
:100A500011C0F90190820EC0F90180820BC0F9012A
:100A6000708208C0F901608205C0F901608302C08C
:100A7000F90150824F5F5F4F2F5F3F4F4630510566
:100A800061F60FB6F894DEBE0FBECDBECF91DF91FA
:100A90001F910F91FF90EF90DF90CF90BF90AF909C
:100AA0009F908F907F906F905F900895AF92BF92CC
:100AB000CF92DF92EF92FF920F931F93DF93CF932A
:100AC00000D000D000D0CDB7DEB77C016B015A0159
:100AD00080E060E80FDF80E060E40CDF80E69AEE03
:100AE0000197F1F7C7018E010F5F1F4FB80159DF62
:100AF00081E06981FFDE81E06A81FCDE81E06B815B
:100B0000F9DE81E06C81F6DE81E06CE5F3DEC601A2
:100B1000B80147DF81E06981EDDE81E06A81EADECC
:100B200081E06B81E7DE81E06C81E4DE81E06D8154
:100B3000E1DE81E06CE5DEDEC501B80132DF81E097
:100B40006981D8DE81E06A81D5DE81E06B81D2DE09
:100B500081E06C81CFDE81E06D81CCDE80E063E0FE
:100B6000C9DEC701B8011DDF81E06981C3DE81E014
:100B70006A81C0DE81E06B81BDDE81E06C81BADE1E
:100B800081E06CE5B7DEC601B8010BDF81E0698169
:100B9000B1DE81E06A81AEDE81E06B81ABDE81E0B7
:100BA0006C81A8DE81E06CE5A5DEC501B801F9DE47
:100BB00081E069819FDE81E06A819CDE81E06B815A
:100BC00099DE81E06C8196DE81E06D8193DE81E0CB
:100BD0006E8190DE26960FB6F894DEBF0FBECDBFB5
:100BE000CF91DF911F910F91FF90EF90DF90CF9009
:100BF000BF90AF9008952F923F924F925F926F9265
:100C00007F928F929F92AF92BF92CF92DF92EF929C
:100C1000FF920F931F93DF93CF93CDB7DEB7289743
:100C20000FB6F894DEBF0FBECDBF5C012B014A01A9
:100C300039016801170180E060E85CDE80E060E473
:100C400059DE80E69AEE0197F1F78091600190916C
:100C500061019A83898333E0E32EF12CEC0EFD1EB3
:100C60008E010F5F1F4FC801B7019BDE81E06B81D2
:100C700041DE81E06C813EDE81E06CE53BDE80910F
:100C80006201909163019A838983C801B70189DE6B
:100C900081E06B812FDE81E06C812CDE81E06FE7EB
:100CA00029DE81E062E426DEC601B7017ADE81E05A
:100CB0006B8120DE81E06C811DDE81E06D811ADEBA
:100CC00081E06E8117DE81E06FE714DE81E06AE487
:100CD00011DEF5016081718180E395E784D2660FB2
:100CE000771F7A836983C801B7015BDE81E06B817E
:100CF00001DE81E06C81FEDD81E06D81FBDD80E065
:100D000063E0F8DD809162019091630165E070E03D
:100D10006AD2CB0163E070E066D2892B09F04FC044
:100D200081E062EBE7DD81E062E7E4DD81E062E73C
:100D3000E1DD81E06CE5DEDDC501B70132DE81E099
:100D40006B81D8DD81E06C81D5DD81E06D81D2DD04
:100D500081E06E81CFDD81E06FE7CCDD81E06AEC80
:100D6000C9DD81E062E2C6DD81E062E7C3DD81E0EA
:100D70006CE5C0DDF60120813181225030404427EE
:100D800037FD4095542FF2016081718182819381FA
:100D90003DD2A90137FF03C0509541955F4FBA017D
:100DA000882777FD8095982F67D9C7D2BFD97A83D6
:100DB0006983CE010196BE016D5F7F4F4DC080916A
:100DC00062019091630165E070E00DD2CB0163E0B8
:100DD00070E009D2019709F049C081E06AE48ADD38
:100DE00081E06AEC87DD81E062E284DD81E06CE530
:100DF00081DDF4014081518157FF03C05095419539
:100E00005F4FBA01882777FD8095982F35D995D205
:100E10008DD97A8369838E010D5F1F4FCE010196B4
:100E2000B801BFDD81E06B8165DD81E06C8162DD51
:100E300081E06D815FDD81E06FE75CDD81E062E78D
:100E400059DD81E06CEA56DD81E06CE053DD81E044
:100E50006CE550DDC101B801A4DD81E06B814ADDA4
:100E600081E06C8147DD81E06D817AC08091620113
:100E70009091630165E070E0B6D1CB0163E070E072
:100E8000B2D1029709F06DC081E06AEC33DD81E0F8
:100E900062E230DD81E062E22DDD81E06CE52ADD99
:100EA000F6012081318122503040442737FD4095A2
:100EB000542FF3016081718182819381A7D1A901AF
:100EC00037FF03C0509541955F4FBA01882777FDE2
:100ED0008095982FD1D831D229D97A83698393E02C
:100EE000E92EF12CEC0EFD1E8E010F5F1F4FC80185
:100EF000B70157DD81E06B81FDDC81E06C81FADCBC
:100F000081E06D81F7DC81E06FE7F4DC81E06EE089
:100F1000F1DC81E062E7EEDC81E062E7EBDC81E0BE
:100F20006CE5E8DCF10120813181F601608171819D
:100F300084E690E0AC01249FC001259F900D349F72
:100F4000900D112450D17A836983C801B70129DD3E
:100F500081E06B81CFDC81E06C81CCDC81E064EAF4
:100F6000C9DC28960FB6F894DEBF0FBECDBFCF9177
:100F7000DF911F910F91FF90EF90DF90CF90BF9086
:100F8000AF909F908F907F906F905F904F903F9029
:100F90002F9008952F923F924F925F926F927F927F
:100FA0008F929F92AF92BF92CF92DF92EF92FF9279
:100FB0000F931F93DF93CF93CDB7DEB7CC54D040C0
:100FC0000FB6F894DEBF0FBECDBF1B821A821D8202
:100FD0001C821F821E82198618861B861A861D8611
:100FE0001C861F861E861C8E1D8E1E8E1F8E18A2AE
:100FF00019A21AA21BA28FEF9FE0998B888B1B8AE4
:101000001A8A1D8A1C8A1F8A1E8A198278949ADC81
:10101000BDDC83DC83E087BB88BB04E4602E03E097
:10102000702E2D961FAE2D9710E2212E312C2C0EF6
:101030003D1EBEE04B2E512C4C0E5D1E8091640176
:10104000882309F496C08E899F8901969F8B8E8B89
:10105000CE014696BE01605F7F4FAE014F5F5F4F8E
:101060009E012E5E3F4F8E010C5D1F4FDADA2E89F6
:101070003F8987E0213D3807C0F42D969FAD2D971D
:10108000992399F488899989861597050CF43C0170
:10109000205D374009F06BC086E190E0680E791E54
:1010A00091E02D969FAF2D9762C08889998986150A
:1010B00097050CF058C080916801882309F050C052
:1010C0008CB59DB5998F888F80916601909167014D
:1010D0009B8F8A8F109267011092660100D000D01A
:1010E00000D0EDB7FEB73196ADB7BEB712965C92A1
:1010F0004E92119786E090E08C0F9D1F9383828320
:10110000AAE1B0E0AC0FBD1FB583A483CE010A965F
:10111000BE016C5F7F4FAE014C5E5F4F9E01285E4B
:101120003F4F8E01085F1F4FA2E0EA2EF12CEC0E1C
:10113000FD1EFCE1CF2ED12CCC0EDD1EECE0AE2E40
:10114000B12CAC0EBD1E4101C1DAB1E0B093680113
:101150008DB79EB706960FB6F8949EBF0FBE8DBF93
:1011600091E098BB04C010926801A3E0A8BB109264
:10117000640180916501882309F460CFCE0108964F
:10118000BE01645E7F4FAE01445F5F4F91018E01EF
:101190000C5F1F4F72012FDD10926501809162017B
:1011A000909163016FE070E01ED0892B09F046CF6B
:1011B0001F821E82198618861B861A863FCFAA1B9D
:1011C000BB1B51E107C0AA1FBB1FA617B70710F032
:1011D000A61BB70B881F991F5A95A9F78095909564
:1011E000BC01CD01089597FB092E07260AD077FD93
:1011F00004D0E5DF06D000201AF4709561957F4F8A
:101200000895F6F7909581959F4F089597FB092EC5
:1012100005260ED057FD04D014D00AD0001C38F497
:1012200050954095309521953F4F4F4F5F4F089512
:10123000F6F790958095709561957F4F8F4F9F4FF2
:101240000895A1E21A2EAA1BBB1BFD010DC0AA1F07
:10125000BB1FEE1FFF1FA217B307E407F50720F01F
:10126000A21BB30BE40BF50B661F771F881F991F9A
:101270001A9469F760957095809590959B01AC01E3
:10128000BD01CF0108952F923F924F925F926F92CE
:101290007F928F929F92AF92BF92CF92DF92EF9206
:1012A000FF920F931F93CF93DF93CDB7DEB7CA1B87
:1012B000DB0B0FB6F894DEBF0FBECDBF09942A88B2
:1012C000398848885F846E847D848C849B84AA845A
:1012D000B984C884DF80EE80FD800C811B81AA81E7
:1012E000B981CE0FD11D0FB6F894DEBF0FBECDBFB2
:1012F000ED010895FB019F01E8944230BCF04532B6
:10130000ACF44A3029F497FB1EF4909581959F4FD9
:10131000642F772754DF805D8A330CF0895D8193D9
:10132000CB010097A9F716F45DE251931082C90131
:1013300042C011F40EF45DC04EC06DD0D0F39923BD
:10134000D9F3CEF39F57550B87FF56D00024A0E664
:1013500040EA900180585695979528F4805C660F76
:10136000771F881F20F026173707480730F4621BC5
:10137000730B840B202931294A2BA69517940794C7
:10138000202531254A2758F7660F771F881F20F040
:1013900026173707480730F4620B730B840B200DB8
:1013A000311D411DA09581F7B901842F9158880FF7
:1013B000969587950895DC01FC01672F719177233D
:1013C000E1F7329704C07C916D9370836291AE1700
:1013D000BF07C8F308959F3F31F0915020F48795DF
:1013E00077956795B795880F911D9695879597F98D
:1013F00008959FEF80EC089591505040660F771F3D
:10140000881FD2F7089557FD9058440F551F59F083
:101410005F3F71F04795880F97FB991F61F09F3FE1
:1014200079F087950895121613061406551FF2CF0A
:101430004695F1DF08C0161617061806991FF1CF5A
:0E14400086957105610508940895F894FFCF14
:10144E00000102020303030304040404040404045D
:10145E00050505050505050505050505050505052E
:10146E00060606060606060606060606060606060E
:10147E0006060606060606060606060606060606FE
:10148E0007070707070707070707070707070707DE
:10149E0007070707070707070707070707070707CE
:1014AE0007070707070707070707070707070707BE
:1014BE0007070707070707070707070707070707AE
:1014CE00080808080808080808080808080808088E
:1014DE00080808080808080808080808080808087E
:1014EE00080808080808080808080808080808086E
:1014FE00080808080808080808080808080808085E
:10150E00080808080808080808080808080808084D
:10151E00080808080808080808080808080808083D
:10152E00080808080808080808080808080808082D
:10153E00080808080808080808080808080808081D
:00000001FF
